:020000040001F9
:10800000783E0020698101008381010085810100A3
:108010000000000000000000000000000000000060
:108020000000000000000000000000008781010047
:108030000000000000000000898101008B81010028
:108040008D8101008D8101008D8101000D8A01006B
:108050008D81010000000000B98601001186010039
:10806000F58A01008D8101008D8101008D81010063
:108070008D8101008D8101008D8101008D810100C4
:10808000058B0100E58901008D8101008D810100D2
:10809000218A01008D810100298A01008D81010062
:1080A0008D8101008D8101000000000000000000B2
:1080B00000000000000000000000000000000000C0
:1080C0000348854600F074FA0048004729E20100A1
:1080D000783E0020401E00BF00BF00BF00BF00BFB1
:1080E00000BF00BF00BF00BF00BF00BF00BFF1D195
:1080F00070470000401E00BF00BF00BF00BF00BFB0
:1081000000BF00BF00BF00BF00BF00BF00BFF1D174
:1081100070470000401E00BF00BF00BF00BF00BF8F
:1081200000BF00BF00BF00BF00BF00BF00BFF1D154
:1081300070470000056885F308884068FF2464B232
:10814000EFF30585002D01D1A646004725460646DA
:1081500021273FBAF0B40024002500260027F0B400
:10816000F92040B2004700000321094802680A4391
:108170000260084802680A430260074880470748CF
:108180000047FEE7FEE7FEE7FEE7FEE7FEE700004A
:108190002405004054050040918A0100C18001007F
:1081A00030B50B46014600202022012409E00D468F
:1081B000D5409D4205D31D469540491B2546954017
:1081C00040191546521E002DF1DC30BD70B500245B
:1081D0002546002801DA01244042002901DA012560
:1081E0004942FFF7DDFFAC4200D04042002C00D0F6
:1081F000494270BDF0B51FB40646002082B0054666
:108200004024019100901BE0019922460F46304620
:1082100000F07BF9049A059B801A994110D310460F
:108220001946224600F061F9361A8F41019722461D
:1082300001200021009F00F058F938184D410090AE
:108240002046641E0028DFDC019B00982946324648
:1082500007B0F0BD03460B439B0703D009E008C9F4
:10826000121F08C0042AFAD203E00B780370401CE6
:10827000491C521EF9D27047D2B201E00270401C74
:10828000491EFBD270470022F6E710B513460A4696
:1082900004461946FFF7F0FF204610BD421C017846
:1082A000401C0029FBD1801A704730B504460020DD
:1082B000034600E05B1C934203D2E05CCD5C401BB4
:1082C000F8D030BDF8B502464A40D40F42004B000A
:1082D00052085B089A4202D20246084611464A00FA
:1082E00023D0C30D4A00DDB2120EAD1A202D35DAAF
:1082F00049020126490AF6058A19002C00D052428B
:1083000020214F1B1146B9402A411018C20D9A4234
:1083100021D0002C17D0012D08DCDA05801AD20FED
:108320008019D207DBB200F009F9F8BDDA05801A2E
:10833000012340001B06C01880185A428018CA0F3B
:108340001043490007E04908C2071143DA05801AC3
:1083500080194008801800F0E9F8F8BD610001229A
:10836000511A001BF7E70122D2075140AAE7012268
:10837000D2075040A6E7024670B54A40D30FDB074C
:1083800040002DD04A002AD0010E140E0002120225
:108390000919400A520A8418E50104465443000AA8
:1083A000120A2E045043A4194219200CC543AA18DE
:1083B000120C0125AD03521C521912047F392404FA
:1083C00000D0521C104301D44000491EC2B20C061A
:1083D000C0092018401C4008802A02D003E0002079
:1083E00070BD40084000002900DA0020184370BD2D
:1083F00070B502464A40D50F40004A00ED074008DC
:108400005208002814D0002A12D0C40DD30D410206
:108410000120C0055202490A520AE41A091812182A
:108420007D34914201D3641C00E04900002C01DA44
:10843000002070BD0023914201D3891A03434008F4
:1084400049000028F7D100290AD0914202D1012128
:10845000C90705E0914201D2012101E00121C94390
:10846000E005C018401900F061F870BDC217C10FD7
:10847000504010B54018CA079623002100F05EF85E
:1084800010BD10B500229623114600F057F810BD1C
:10849000C20F410040020123400ADB05D207090E4A
:1084A000C0187F2901DA00207047962903DC962343
:1084B000591AC84001E096398840002AF4D0404259
:1084C0007047410040020122400AD205090E80187F
:1084D0007F2901DA00207047962903DC9622511A81
:1084E000C840704796398840704710B5202A04DB91
:1084F0000146203A9140002010BD914020239C1A53
:108500000346E3401943904010BD10B5202A04DB18
:108510000846203AD040002110BD0B46D340D04041
:108520002024A21A91400843194610BD002904DAFC
:10853000401C490001D140084000704770B400243D
:10854000050C05D11024000402D1002921D01124EA
:10855000050E01D100020834050F01D10001241DD0
:10856000850F01D18000A41C002801DB4000641CA1
:10857000002908D020252E1B0D46F540A14000D033
:1085800001212943084301061B1B000ADB1D02D5FC
:10859000002070BC7047DB05181880180029F8DA35
:1085A000401C4900F5D170BC4008400070470000F5
:1085B000064C0125064E05E0E36807CC2B430C3C36
:1085C00098471034B442F7D3FFF77EFD242D020004
:1085D000442D020030B58C180278401C13071B0F85
:1085E00001D10378401C120906D10278401C03E037
:1085F00005780D70401C491C5B1EF9D101E00B7021
:10860000491C521EFBD1A142E6D3002030BD000020
:1086100010B500BF00200749086000BF00BF01205F
:108620000549486000BF054A0021084601F072FB79
:1086300010BD000000710040007000404186010044
:1086400070B505460E4617480078072802DB002063
:108650001449087000BF1448806881B2114802783C
:108660000078401C0F4B18705000104A115200F057
:10867000FDFF044600F0BEFF0D490968884206D19F
:108680000B480068002802D00A200A49087000F050
:10869000EDFF044600F0AEFF0549086001F030FD33
:1086A00070BD00001420002000750040C02700208D
:1086B0001820002016200020F0B587B000260020EA
:1086C0000690FF20013005900125002415E0059853
:1086D00006F0D4FB00280BD000BF55484068284066
:1086E000002805D0059806F0C1FB30462843064611
:1086F0006D000598001D0590641C042CE7D3FF2035
:108700007D3006F0BBFB00280AD0FF207D3006F04C
:10871000ADFB0120C007064300BF46480069069034
:108720003007000F00282AD00125002425E0284624
:10873000304000281FD000BF3F4851210901401898
:10874000A10040581F2109020840000A049000BF00
:108750003948512109014018A1004058032109045A
:108760000840000C0390204602F034FB07460399B2
:108770000498B84700BF6D00641C042CD7D3F00FD9
:10878000C007002852D000244EE02C480057401C5F
:10879000002848D02948005D0490C02104988843EF
:1087A0000746384602F05AFB029002F013FB039092
:1087B0000398002836D0C021049808408011029008
:1087C0000120B840054600BF052000070721090227
:1087D0004018B9004058032109040840000C0190DA
:1087E00006982840002802D00198022806D0069852
:1087F0002840002815D10198032812D10298032897
:108800000BD10198022801D1032000E00220009042
:108810003846009906F0CFFA00BF3846039A02990D
:10882000904700BF00BF641C042CAED307B0F0BD5E
:108830000063004000050050006000402435002027
:10884000C206D20E01219140014A1160704700001A
:1088500080E200E0C206D20E01219140014A11607F
:108860007047000000E100E0C206D20E01219140F5
:10887000014A11607047000000E200E010B50028D6
:1088800019DA1A4A03071B0F083B9B089B00D258B2
:108890008307DC0EFF23A3409A438B071B0E84073C
:1088A000E40EA3401A43114B0407240F083CA4080C
:1088B000A4001A5118E00E4A03231B02D2188308A1
:1088C0009B00D2588307DC0EFF23A3409A438B07FB
:1088D0001B0E8407E40EA3401A43054B0324240215
:1088E0001B198408A4001A5110BD00001CED00E003
:1088F00000E100E010B5002819DA1A4A03071B0F3F
:10890000083B9B089B00D2588307DC0EFF23A34043
:108910009A438B071B0E8407E40EA3401A43114BA6
:108920000407240F083CA408A4001A5118E00E4ABA
:1089300003231B02D21883089B00D2588307DC0E46
:10894000FF23A3409A438B071B0E8407E40EA3402A
:108950001A43054B032424021B198408A4001A514E
:1089600010BD00001CED00E000E100E010B50028A3
:1089700019DA1A4A03071B0F083B9B089B00D258C1
:108980008307DC0EFF23A3409A438B071B0E84074B
:10899000E40EA3401A43114B0407240F083CA4081B
:1089A000A4001A5118E00E4A03231B02D2188308B0
:1089B0009B00D2588307DC0EFF23A3409A438B070A
:1089C0001B0E8407E40EA3401A43054B0324240224
:1089D0001B198408A4001A5110BD00001CED00E012
:1089E00000E100E010B500200749086000210648BA
:1089F00041608160C16000200349403908604860DF
:108A000008F0EAFD10BD00004011014010B5024918
:108A1000024805F059F810BD1C3600200030004017
:108A200010B508F0EDFC10BD70B50C4800680028CA
:108A300010D00A4800688047044600BF2546002D34
:108A400006D000BF00221146284601F0D1F800BF31
:108A500000BF01E004F0C0FF70BD00001C21002039
:108A600010B503461A4600200121890700E0890855
:108A70009142FCD808E04418944203D84418121BD1
:108A80004C002018400889080029F4D110BD0000CE
:108A900010B505F07DF8002805D010481049486051
:108AA000C8131049886105F057F8002802D001204A
:108AB0000D49886005F0CEF800280ED00B480068FC
:108AC000012807D00A480949086000BF0748006824
:108AD0000128FBD1C0200549486110BDDFFF07C058
:108AE00000050040006C00400006004000EC06401D
:108AF0007593000010B50021014806F02BF810BD59
:108B00000080004010B501200A4949680140002951
:108B100001D0012100E00021012909D100BF00207E
:108B20000902054A8918086000BF044800688047A8
:108B300010BD00000003014000000140C8200020DB
:108B40000FB41CB50246002007AC00290BD0491E0B
:108B500001910092064B6A462146069800F040F8C3
:108B6000009A002111701CBC08BC04B0184700001A
:108B700055900100F8B582B28BB204140D14104662
:108B80005843002126465E43371436048019794144
:108B900016466E43371436048019794126466E43D3
:108BA0008919F8BD30B47446641E2578641CAB4244
:108BB00004D3635D5B00E31830BC18471D46F8E73B
:108BC00002E008C8121F08C1002AFAD17047704796
:108BD000002001E001C1121F002AFBD170470000F4
:108BE000FFB591B00F460546002606E025280AD0BD
:108BF000149A139990476D1C761C28780028F5D19B
:108C0000304615B0F0BD002400940121F34A0294CF
:108C100000E004436D1C2B780846203B984010422E
:108C2000F7D128782A280ED0022128780246303A37
:108C3000092A15D8009A0A235A43303A80180C435F
:108C40006D1C0090F1E701CF0090002805DA0120AB
:108C500040030443009840420090022004436D1CEE
:108C600028782E2815D10420044368786D1C2A2802
:108C70000AD101CF6D1C02900BE002990A225143E8
:108C8000303940186D1C0290287801463039092986
:108C9000F3D928786C2810D006DC4C281AD0682824
:108CA0000ED06A2817D104E0742813D07A2812D184
:108CB00010E00120400504430CE00121090501E01A
:108CC000032109050C436978814203D10120000585
:108CD00024186D1C6D1C287803906E281ED00CDCA7
:108CE000632831D004DC00288AD0582811D1B2E0A2
:108CF00064287BD069280CD178E073282DD004DC5F
:108D00006F2870D0702804D1A7E075286CD078281F
:108D10006BD0149A13999047761C62E06002400F62
:108D2000022807D003280AD0042838680AD0066031
:108D30003F1D56E03868F11706604160F8E7386873
:108D40000680F5E70670F3E7387869460874002076
:108D5000487404A80390012003E0386803900020C1
:108D6000C0433F1D61070FD5002101E00199491C57
:108D7000029A0191914213DA8142F7DB019A039939
:108D8000895C0029F2D10BE0002101E00199491C26
:108D900001918142FADB019A0399895C0029F5D19E
:108DA00001990098139A401A00902146149B00F0F4
:108DB0003BF901998019461807E003980399007858
:108DC000491C0391149A139990470198401E0190F1
:108DD000401CF2D12146149B139A009800F014F91C
:108DE00086196D1C09E741E033E034E00A200021D8
:108DF000049005916002410F022905D001CFC217EE
:108E00009446032905D007E0FF1DFF08FF0003CFAC
:108E100006E000B2C2179446042902D140B2C1173D
:108E20008C4600226146944506DA0A4600214042FB
:108E300091418C462D2102E0210504D52B216A4663
:108E40001176012103E0E10701D02021F7E701912C
:108E500054E00A200BE0102009E0102004900021CB
:108E60000420044308200591029003E0082000211B
:108E7000059104906002410F022905D001CF002224
:108E80009446032906D006E0FF1DFF08FF0003CF2C
:108E90008C4603E080B2042900D1C0B200210191C8
:108EA00021072BD50399702906D0049A1021059B20
:108EB0004A401A4305D00EE040216A46117601214E
:108EC00008E06146014306D030216A4611760399D5
:108ED000517602210191049A0821059B4A401A43C8
:108EE0000CD16146014301D1610707D530216A46A3
:108EF0001176012101910299491E02910399582985
:108F000004D037A103910FA90F910DE039A1F9E722
:108F10006146059B049AFFF76DF9039B8C469B5CA9
:108F20000F9A521E0F92137061460143F0D10F98B1
:108F300007A9081A20300390600704D50120000417
:108F40008443029801E0012002900399884201DDE8
:108F5000401A00E00020411802900198091800987A
:108F6000401A0090E00306D42146149B139A0098FF
:108F700000F05AF886190020049008E006A9085C61
:108F8000149A139990470498401C761C04900199F8
:108F90008842F3DBE0030CD52146149B139A00981A
:108FA00000F042F8861904E0149A30201399904793
:108FB000761C0299481E02900029F5DC08E00F9803
:108FC0000F990078491C0F91149A13999047761CB9
:108FD0000399481E03900029F1DCFBE609280100F3
:108FE000303132333435363738396162636465661F
:108FF00000000000303132333435363738394142E1
:109000004344454600000000F8B5044600251E46CE
:109010001746880404D405E039462020B0476D1C6B
:10902000641EF9D52846F8BDFFB50446002581B079
:109030001E46C80301D5302700E02027880404D548
:1090400005E038460399B0476D1C641EF9D52846E3
:1090500005B0F0BD4A68002A06D00A68531C0B60B0
:1090600010704868401E48607047000070B50446A4
:109070000D46164617480078C00017490C5215488F
:109080000078C0004018458012480078C0004018A1
:109090008680214661432A466A438A1831467143D5
:1090A0005018FFF7DDFC0B490978C9000A4A8918F6
:1090B000C88000F013F807480078401C0549087084
:1090C00008460078082801DB0020087000F0A4F9A9
:1090D00070BD000038200020082E0020F0B589B0B7
:1090E0000426C9480078401CC4B200200590002521
:1090F00095E03046FFF7C5F90746681CFFF7B6F95B
:1091000039460490FFF774F9069006990598FFF721
:10911000D9F805906719F917490FC919C910C9007D
:10912000791AC900B94A505EFFF7A0F90190069973
:10913000FFF721F9694603901C20085EFFF796F9B6
:1091400002900399FFF7BEF80490FFF7A1F900B26F
:10915000694688836719F917490FC919C910C900E9
:10916000791AC900A94A89180220085EFFF77EF91A
:1091700001900699FFF7FFF8694603901E20085EEC
:10918000FFF774F902900399FFF79CF80490FFF73A
:109190007FF900B26946C8836719F917490FC919E1
:1091A000C910C900791AC900984A89180420085EB4
:1091B000FFF75CF901900699FFF7DDF86946039027
:1091C0002020085EFFF752F902900399FFF77AF822
:1091D0000490FFF75DF900B2694608846719F91732
:1091E000490FC919C910C900791AC900874A8918D5
:1091F000C888FFF746F901900699FFF7BCF8694661
:109200000390488CFFF73DF902900399FFF75AF855
:109210000490FFF756F969464884681CC5B2B54208
:1092200000DC66E7072597E03046FFF72AF9074696
:109230007100491B481CFFF719F939460490FFF7E4
:10924000D7F8069006990598FFF73CF8059067193E
:10925000F917490FC919C910C900791AC9006B4A11
:10926000505EFFF703F901900699FFF784F869460D
:1092700003901C20085EFFF7F9F802900399FFF7AE
:1092800021F80490FFF704F900B269468883671952
:10929000F917490FC919C910C900791AC9005B4AE1
:1092A00089180220085EFFF7E1F801900699FFF7A0
:1092B00062F8694603901E20085EFFF7D7F8029017
:1092C0000399FEF7FFFF0490FFF7E2F800B269464A
:1092D000C8836719F917490FC919C910C900791A44
:1092E000C9004A4A89180420085EFFF7BFF80190B8
:1092F0000699FFF740F8694603902020085EFFF7C3
:10930000B5F802900399FEF7DDFF0490FFF7C0F86F
:1093100000B2694608846719F917490FC919C910BD
:10932000C900791AC900394A8918C888FFF7A9F80D
:1093300001900699FFF71FF869460390488CFFF7E4
:10934000A0F802900399FEF7BDFF0490FFF7B9F86B
:1093500069464884681EC5B2B54200DD64E76946C7
:109360001C20085EFFF782F807460599FFF740F8D2
:109370000546FFF78DF800B2694688831E20085E17
:10938000FFF774F807460599FFF732F80546FFF72F
:109390007FF800B26946C8832020085EFFF766F8B0
:1093A00007460599FFF724F80546FFF771F800B264
:1093B00069460884488CFFF764F807460599FFF76B
:1093C00017F80546FFF77DF8694648841049097883
:1093D000C900104A88186946898B01806946C98B83
:1093E00041806946098C81806946498CC180084862
:1093F0000078401C0649087008460078802801DB88
:109400000020087009B0F0BD38200020082E002090
:1094100039200020482E0020F0B585B05348007850
:10942000012803DD51480078801E00E07F20C4B28F
:109430004E490978002903DD4C490978491E00E0AE
:109440008021C9004A4A8918C888C117090F09181C
:109450000E11E1008918C888C117090F09180D11EC
:10946000B54201D105B0F0BD424800780121484025
:10947000B54200DD00E000214840002873D03E499D
:109480000978C9003A4A8918C888C117090F09180C
:109490000911039139490978C9008918C888C11789
:1094A000090F09180911029102990398401A87B20D
:1094B0000298281A80B20190AE4201DD012000E03E
:1094C00000202C490870F917890FC9198A100199D1
:1094D0008A4247DC0198032800DCC3E7254800786E
:1094E00000283DD124480078844203DD22480078DA
:1094F000201A04E0204680301F490978401AC0B283
:109500000090009800F048F8002817D01C48007818
:10951000401CC1B21A48017000201A49087018484E
:109520000078072803DD012000F02EF814E014482D
:109530000078072810D100F027F80DE011480078D6
:10954000401C1049087008460078022804DD00F02D
:1095500045F800210A4801700748047002E002E063
:109560000648047000BF00BF7CE7000039200020DF
:10957000482E00203C2000203A2000203B200020E4
:109580003D2000203E2000200249C96A0918014AF6
:10959000D1627047582D002010B504460D48007860
:1095A000844214DD0C480078844210DAA0000521C2
:1095B000FEF70CFE07490870A1006018C117890F5B
:1095C00009188905090E044A1170012010BD0020F8
:1095D000FCE700003F200020402000200520034938
:1095E0000870322002490870704700003F200020B8
:1095F00040200020014608464B22120150430B2216
:1096000050434001000C70470EB5144A07CA6B4620
:1096100007C3684604F0CAFF20200102104A5268BE
:10962000FF231B029A4311430D4A5160002802D0C8
:109630000121116002E00021094A116000BF0120F0
:109640000849486000BF03210720FFF717F90720EA
:1096500001218140044A116000BF0EBD2C20020090
:10966000007500400073004000E100E0F8B5114EC5
:1096700000270025002009E041000F4A545ABC424F
:1096800000DD2746B44200DA2646401C0728F3DBFB
:10969000002004E04100084A515A4D19401C072897
:1096A000F8DBED1BAD1B05212846FEF779FD80B2E6
:1096B000F8BD0000FFFF0000C027002000B50848EB
:1096C0000078401C0649087008460078054909786A
:1096D000884204DB00200249087000F009FD00BD4B
:1096E0001520002016200020F7B582B0044616464B
:1096F0000025378800203080E06B00280CD0E16B1B
:1097000008783B463246039906F0FCFE0546002DDC
:1097100002D0284605B0F0BDA06B00280AD03B4619
:109720003246A06B039907F0DBFF0546002D01D000
:109730002846EFE7606B00280AD03B463246606B54
:10974000039904F053FC0546002D01D02846E1E7BB
:109750003120005D002809D03A463146039801F0D7
:1097600091F80546002D01D02846D3E760790028FE
:1097700009D03A463146039800F080FC0546002D9A
:1097800001D02846C6E7A07900280BD0A17948B2BD
:109790003B463246039903F0C6FE0546002D01D034
:1097A0002846B7E7A06800280CD00020A16808561A
:1097B0003B463246039908F010FA0546002D01D0C9
:1097C0002846A7E7A08900280DDD0197009606220C
:1097D000022120460C30039B08F0B0FA0546002D0C
:1097E00001D0284696E7A08A00280DDD0197009653
:1097F0000722032120461430039B08F09FFA0546F8
:10980000002D01D0284685E7A08B00280DDD0197AB
:1098100000961522142120461C30039B08F08EFA76
:109820000546002D01D0284674E7606A00280AD05A
:109830003B463246606A039902F07EF80546002DE9
:1098400001D0284666E7A06A00280AD03B46324687
:10985000A06A039904F048FD0546002D01D0284672
:1098600058E73020005D00280ADD3B46324620469E
:10987000039906F062FE0546002D01D0284649E70F
:10988000206800280AD03B4632462046039904F05F
:1098900016FE0546002D01D028463BE7284639E74D
:1098A00070B506460C480078002800D070BD3046E0
:1098B00000F026FE044600BF2546002D05D000BF5F
:1098C00000221146284600F093F900BF012002490A
:1098D000087000BFEAE700000C20002001468879EC
:1098E00004221040002801D1072070470020FCE727
:1098F00030B59BB040210BA8FEF7C5FC02200B90B1
:10990000012108A8417405218174022110A8018059
:1099100014491191242102A8FEF7B5FC01216846E3
:109920000175A02006901420079008A80170192046
:10993000800109901420099000200B4B02AA0146D7
:1099400000900BA800F06EFC044600BF2546002DD9
:1099500005D000BF00221146284600F049F900BF9B
:109960001BB030BD0420002031EF010070B574DF62
:10997000044600BF2546002D06D000BF0022114638
:10998000284600F035F900BF00BF70BD70B5054630
:1099900029480078002813D027480078401E26491F
:1099A00008700846007800280AD12448007800286A
:1099B00006D022480078401E2049087000F04EF87A
:1099C000002436E0600021181D48081880788021A6
:1099D000084000280AD1600021181948081880782A
:1099E0006A7A012191400840002821D060002118A6
:1099F0001348405CA97988421AD1600021181048A8
:109A000008184078E979884212D100F027F80C480C
:109A100016380078094908706000211808480818AD
:109A20008078802188436100621805495118887048
:109A3000641C052CC6DB70BD2C2000202D200020CE
:109A40006E2D002010B500F012F80248407802494F
:109A5000087010BD582D00202C20002010B508F0F3
:109A60003FFAC92004F03AFA00F028F810BD10B50A
:109A700000F052F8CA2004F031FA08F04FFA10BD95
:109A800010B50446FFF7DEFF10BD000070B5094AAF
:109A90000021094800F006FA044600BF2546002DC3
:109AA00006D000BF00221146284600F0A1F800BFF2
:109AB00000BF70BD819A01007C2C0200F8B51448EB
:109AC00080787D21C90048430121C903FFF752F87E
:109AD000FF23F5330022C51851415A0000232846C0
:109AE000FEF788FB0746002239460A48006800F066
:109AF0007DFA044600BF2546002D06D000BF002297
:109B00001146284600F074F800BF00BFF8BD000001
:109B1000582D00207C2C020070B50948006800F028
:109B200091FA044600BF2546002D06D000BF002252
:109B30001146284600F05CF800BF00BF70BD000071
:109B40007C2C0200FEB506460420019022480290BB
:109B50006946304602F0F2FC0446002C31D11E4822
:109B60000078C007C00F00281BD01C4A0C211C48DD
:109B70000088A7DF0446002C13D01A48844210D076
:109B8000082C0ED0801C84420BD0112C09D0164812
:109B9000844206D000BF00221146204600F028F87B
:109BA00000BF304602F06CFC044600BF2546002D85
:109BB00006D000BF00221146284600F019F800BF69
:109BC00009E00A48844206D000BF00221146204620
:109BD00000F00EF800BFFEBD10200020FFFF0000C7
:109BE000022000200230000001340000408000000C
:109BF0000446A0B208F030F900BF00BF00BF00BFAC
:109C000000BFBFF34F8F00BF00BF00BF064807492A
:109C1000C86000BF00BF00BFBFF34F8F00BF00BFD1
:109C200000BF00BF00BFFDE70400FA0500ED00E043
:109C3000F8B504460D4616460348076832462946DD
:109C40002046B847F8BD0000C0340020F8B50546EE
:109C50000C4627780C21A068484306490E58064850
:109C6000006800902A463946204608302369B047EC
:109C7000F8BD0000F8350020C020002010B50446D3
:109C80000648007814225043044A121D81182046C9
:109C9000FFF7DCFF042006F0A7FC10BD2C350020E8
:109CA000F8B505460E4617460520009000BF14493A
:109CB000087814490978814201D1012100E000218E
:109CC00000291BD10E480478007804F059FC0C4997
:109CD00008700D48008860430C49096840182860E6
:109CE000E0000B490968401880883080E00008498E
:109CF0000968085838600020009000BF0098F8BD3F
:109D00001421002015210020162100201021002000
:109D10000C210020F7B584B00C463D4800888442F1
:109D200072DC3C4D0020039001F054FF0290029839
:109D3000012814D003A836DF0746022F01D172B6DE
:109D40000CE000BF0197019F002F06D000BF00224A
:109D500011460198FFF74CFF00BF00BF00BF00BFD6
:109D60002D4807782D48007804F00AFCB84201D14C
:109D7000012000E00020002806D12848057800785E
:109D800004F0FEFB254908700298012814D062B641
:109D90006846007B37DF0746022F0CD000BF0197D3
:109DA000019F002F06D000BF002211460198FFF747
:109DB0001FFF00BF00BF00BF1648854222D0E90048
:109DC000174A0698126850500498002811D0002CA9
:109DD0000FDD0F4909886943124A12688818224624
:109DE0000499FEF737FAE8000D49096840188480A5
:109DF00005E00020E9000A4A1268891888800026D8
:109E000001E001E0042600E00926304607B0F0BD7D
:109E100016210020FFFF0000142100201521002042
:109E20000C210020102100200EB504E06846818836
:109E3000009A029890476A4601A902A8FFF730FFEE
:109E40000028F3D00EBD000030B50346481CC00406
:109E5000040C10468507AD0F002D01D1012500E04F
:109E60000025002D01D1072030BD084802601019DF
:109E7000074D28600020074D2870074D28700748BF
:109E80000380074801800020EEE700000C2100203D
:109E9000102100201521002014210020162100206F
:109EA0001821002010B503460C460D480068002814
:109EB00001D1082010BD002A01D10720FAE7002BAC
:109EC00001D10720F6E71868007C002801D008209F
:109ED000F0E71968002008744C618A6100BFE9E767
:109EE000E4200020F8B504460D46264600BF082DA4
:109EF00001D1012000E000200746002F06D100BF5D
:109F0000002211461046FFF773FE00BF00BF316804
:109F100070688847F8BD00007CB504460D46009483
:109F20000195034A08216846FFF7F4FE7CBD000056
:109F3000E59E0100FFB581B00E4614461F4620463F
:109F40008107890F002901D1012100E000210029AA
:109F500002D1072005B0F0BD002C04D100201C491F
:109F600008600720F6E706F0C3F81A4807600320E8
:109F70001949087016480460183400250CE0E900FF
:109F8000134A12688818002101704170867044607D
:109F9000182171430C196D1C032DF0DB00200F49B3
:109FA00008600F4908700F4908701420FEF748FC3C
:109FB00003211420FEF7DAFC1420FEF74BFC019875
:109FC00006F06CF806F064F8074908600020C1E765
:109FD000E4200020FC200020E0200020E8200020D9
:109FE000F8200020F9200020EC200020FEB50446D7
:109FF0000D461746264612480068002801D1082061
:10A00000FEBD002C01D10820FAE7052D01D2072062
:10A01000F6E7B069002801D10820F1E7706901284E
:10A0200001D1284600E00020029007F05DFE009775
:10A0300001902A463146029B07F082FAE0E70000D1
:10A04000E420002070B5044625460B48006800282F
:10A0500001D1082070BD002C02D0A869002801D1D0
:10A060000820F7E70020287407F03EFE0646294640
:10A0700007F092FAEEE70000E4200020F8B505466C
:10A080000C4617462088001DB84201D90C20F8BDA7
:10A09000684679DF0646002E01D03046F7E70320F8
:10A0A000218868542088401C208019202188685409
:10A0B0002088401C2080208841196846008807F0CD
:10A0C000ADFD2188401820800020E0E7704710B5E2
:10A0D000FFF79AFA10BD00000148007A70470000AF
:10A0E000D82D00200148008880B270471820002039
:10A0F00000BF0121014A116000BF7047007000409D
:10A1000010B50949098888B200F012F80749097AA0
:10A11000884208D00449098888B200F009F8034948
:10A12000087201F08DFA10BD18200020D82D0020F3
:10A1300010B5044617480078002801D0642010BDEF
:10A140001548844201DD6420F9E77D204001844206
:10A1500007DD0146601A1421FEF738F85A30C0B204
:10A16000EDE7E1200001844207DD0146601A052188
:10A17000FEF72CF80A30C0B2E1E71920C001844292
:10A1800006DD0146601A2821FEF720F8C0B2D6E7A6
:10A190000020D4E72120002068100000F3B593B020
:10A1A0000D461F21129111911398002814D0139875
:10A1B000FFF794FB0446002C02D0204615B0F0BDFA
:10A1C00012AA09A91398FFF78FFA0446002C01D0B0
:10A1D0002046F3E709AE02E0002600201290002D91
:10A1E00013D0284606F061FA0446002C01D0204620
:10A1F000E4E711AA01A92846FFF776FA0446002CE5
:10A2000001D02046DAE701AF02E0002700201190DC
:10A2100010A88088C3B210A80089C1B23A4630465F
:10A2200072DFCBE7F8B504460F4615461E46002CF4
:10A2300001D0002D01D10E20F8BD00204849086052
:10A24000484806604849069808602422294647483D
:10A25000FEF700F800F04CF94548464908604648CA
:10A26000886040214548FEF70EF8444920680860A0
:10A2700060794871A079887120790871A269606954
:10A280008A61486108462269E1680261C160226A08
:10A29000E1690262C161A06A00281BD038483749D1
:10A2A000886238498160A06A00883449896A0880D8
:10A2B000A06A80883149896A8880002005E0A16A07
:10A2C0008968095C2F4A1154401C2C49896A898885
:10A2D0008142F4D8E06A002824D02B492B488160C1
:10A2E0002649C86228492548C06A8160E06A80889A
:10A2F0002249C96A8880E06A00882049C96A0880C2
:10A30000002005E0E16A8968095C1F4A1154401C7D
:10A310001A49C96A89888142F4D83020015D1748FA
:10A3200020300174606A00280BD019481349486234
:10A33000606A4088496A4880606A00880F49496AB3
:10A340000880A068002804D012480C498860A068E2
:10A35000886039460948FFF721FF009000986BE7B5
:10A360005820002050200020542000208832002057
:10A37000BC320020AC320020DC3200204832002009
:10A38000FC32002008330020343300202833002022
:10A39000602000206420002070B50446208810282A
:10A3A00004D0112806D0192869D11AE0A0883549AF
:10A3B000088065E0002034490870A0883149098888
:10A3C00088420DD1012000F09BF80546002D07D0F2
:10A3D0002E480068002803D028462C490968884781
:10A3E0004EE0A079002849D129480068012806D00C
:10A3F000022813D0032820D004283DD12FE00220CA
:10A4000000F07EF80546002D07D02048006800289F
:10A4100003D028461D49096888472EE0032000F034
:10A420006FF80546002D07D018480068002803D0B3
:10A4300028461649096888471FE003201549086027
:10A44000042000F05DF80546002D07D00F48006895
:10A45000002803D028460D49096888470DE00020F0
:10A460000C4908600C480068002804D008460068C1
:10A4700009490968884700E000BF00BF00E000BF4D
:10A4800000BF70BD662000205C200020542000200A
:10A49000582000204C2000205020002070B5044699
:10A4A0000025022C02D0032C18D100E000BF0D487B
:10A4B0000078002811D000200A4908700A48006876
:10A4C00000F01EF80546002D07D008480068002857
:10A4D00003D0284605490968884700E000BF00BF4F
:10A4E00070BD00004420002058200020542000208F
:10A4F00010B507210148FDF7C6FE10BD452000201C
:10A5000030B587B00546A248056000200090684637
:10A5100005F00CFA0446082C02D10020009004E05B
:10A52000002C02D0204607B030BD0098002804D08F
:10A530000120984908700020F5E7FFF7D9FF9648F9
:10A540004078002803D092480068012807D092483C
:10A550008078002812D08E48006802280ED18F48DB
:10A560000068002807D001208D49087008208B4919
:10A570000968884702E0002089490870844800681B
:10A5800001280BD184484078002804D0854805F084
:10A590004FF9002802D102207D4908607C480068FC
:10A5A00002280BD17C488078002804D07D4805F033
:10A5B0003FF9002802D10320754908607648007BE6
:10A5C000002806D172480068032802D1042070498F
:10A5D00008607148007E002808D16D480068042892
:10A5E00004D100206A4908606F4908606B48006820
:10A5F000002817D066480068032803D06448006824
:10A6000004280FD16448007800280BD067480078F0
:10A61000002807D101206649087007205F490968B2
:10A62000884702E0002062490870182101A8FDF760
:10A630002AFE0021684601710020029068460173DD
:10A640000020049052480068012806D0022811D04A
:10A65000032823D0042879D150E05248401E0290AC
:10A660000121684601710021C182818201204E4989
:10A67000086075E04B48401E029001216846017158
:10A680004548008981B26846C1824348808881B2CA
:10A690006846818202204449086061E03E48808A21
:10A6A00081B26846C1823C48008A81B26846818294
:10A6B000404807F0A7FC00281CD037480078002845
:10A6C00018D03A480078002814D10220694608734F
:10A6D0003848049004203849887100213648FFF733
:10A6E0005DFD0446002C01D020461CE705202E49C4
:10A6F000086002E003202C49086031E02648808B86
:10A7000081B2684681822448008C81B26846C18249
:10A71000284807F077FC00281DD01F480078002843
:10A7200019D022480078002815D102206946087304
:10A730002048049004202049887100211E48FFF71A
:10A740002DFD0446002C02D02046ECE607E0062052
:10A750001549086002E004201349086000E000BFCA
:10A7600000BF0B480068002806D001A873DF04462C
:10A77000002C01D02046D6E608480068002804D006
:10A78000094800680549096888470020CBE60000B1
:10A790005820002044200020883200205020002033
:10A7A0005E200020462000204C2000205C2000205D
:10A7B0005D200020AC3200204832002070B50546F4
:10A7C0001C2229461448FDF745FD00201349087056
:10A7D000286800280BD0082211482968FDF73AFDA7
:10A7E0000F487ADF0446002C08D0204670BD0C4884
:10A7F0007BDF0446002C01D02046F7E70020C04351
:10A8000008490880002008490870084A00210848C3
:10A81000FFF748FBEAE70000543300207C200020CB
:10A820006820002072200020702000204D1C0200B3
:10A83000842C020010B504462088102806D0112868
:10A8400008D012280ED0502810D107E0204604F07E
:10A85000EDFB0CE0204604F0ADFC08E0204604F0DF
:10A86000F7FC04E0204604F0D5FB00E000BF00BF89
:10A8700010BD000010B502480068FFF7E3FB10BDF3
:10A88000842C0200FEB505460C4617462088093088
:10A89000B84201D90C20FEBD684671DF0646002E85
:10A8A00001D03046F7E70820218868542088401CF2
:10A8B00020801B20218868542088401C208021880B
:10A8C0004819062200A90131FDF7C4FC2088801D2B
:10A8D000208068460078002802D12188685402E070
:10A8E0000120218868542088401C20800020D2E765
:10A8F00070B586B004460E46002C04D0002E02D05F
:10A900007068002802D10E2006B070BD0020C04340
:10A910002080204B0FCB01AD0FC51F4869468882B0
:10A92000163101A863DF0546002D01D02846EBE76C
:10A93000221D05A90120A0DF0546002D01D02846D3
:10A94000E2E76846807DA071204601F097FC05464D
:10A95000002D01D02846D7E7204601F015FC05461A
:10A96000002D01D02846CFE73146204601F0F0FC0B
:10A970000546002D01D02846C6E77068A062B06881
:10A98000002801D0B068E06201200449087000206E
:10A99000BAE70000BC2C0200301500009420002013
:10A9A00070B505460C46002D01D0002C00D170BDBD
:10A9B000A86A00281FD02088102806D011280ED0A1
:10A9C000502807D0512814D10EE02146284604F023
:10A9D0004BFB0FE02146284604F068FC0AE02146C4
:10A9E000284604F009FC05E02146284604F00CFC4A
:10A9F00000E000BF00BF00BFD9E7000070B586B01F
:10AA000004460D461646002C02D10E2006B070BD3D
:10AA100020881A49884203D019480078002801D1BB
:10AA20000820F3E700210191102168468288501C1C
:10AA300083B214480193815468468288501C83B2C3
:10AA400010480193855468468288501C83B20D4893
:10AA50000193865400200290039004900590218A6F
:10AA600068460181012181720021818101A8049041
:10AA700004480590208802A9A6DFC7E7FFFF000071
:10AA8000942000209520002010B50446204601F0B7
:10AA900081FE2046FFF7CEFE2146064800F04EF824
:10AAA000204604F04FFA2046FFF776FC204601F0DE
:10AAB00061FB10BD5C21002070B586B004460E46D7
:10AAC0001D4B0FCB01AD0FC5002C01D0002E02D1C4
:10AAD0000E2006B070BD0020C043A0823068A06187
:10AAE0000020A075214601A863DF0546002D01D096
:10AAF0002846EEE721786846817501218182A21CF3
:10AB000005A90120A0DF0546002D01D02846E0E779
:10AB10003146204605F026FC0546002D01D028468A
:10AB2000D7E73146204606F0E9FF0546002D01D063
:10AB30002846CEE70020CCE7CC2C020070B50546B5
:10AB40000C46002D01D0002C00D170BD20881028AB
:10AB500004D0112807D050280FD109E021462846FB
:10AB600004F085FA0AE02146284604F049FB05E096
:10AB70002146284604F0AFFB00E000BF00BF00BF45
:10AB8000E3E7000037B584B004460D46002C02D13F
:10AB90000E2007B030BDA08A0F49884202D0A07DA8
:10ABA000002801D10820F4E76846008B142801DD55
:10ABB0000720EEE700200090019002900390A18909
:10ABC00068460180039506A80290012168468170BD
:10ABD000A08A6946A6DFDCE7FFFF00007CB500BF66
:10ABE000002348222F490D2005F01EFD054600BF19
:10ABF0002E46002E05D000BF002211463046FEF73B
:10AC0000F7FF00BF00BF00200090019001206946BF
:10AC10000870684660DF044600BF2546002D05D059
:10AC200000BF002211462846FEF7E2FF00BF1E4883
:10AC300005F0EEFC044600BF2546002D05D000BF00
:10AC4000002211462846FEF7D3FF00BF174805F043
:10AC50001FFD044600BF2546002D05D000BF002281
:10AC600011462846FEF7C4FF00BF002047DF044618
:10AC700000BF2546002D05D000BF00221146284602
:10AC8000FEF7B6FF00BF01203BDF044600BF2546AC
:10AC9000002D05D000BF002211462846FEF7A8FF70
:10ACA00000BF7CBD6024002089AA0100251302009A
:10ACB0007CB50446A1786A460D4804F04FFE05466F
:10ACC000002D13D161781C2251430A4A88181C2395
:10ACD0001A46694604F07EFF0748807A80000749DB
:10ACE0000A58214668469047054600BF7CBD0000D3
:10ACF0008020002074340020C0340020982C0200F2
:10AD0000F8B506460820009001236A4621493046DE
:10AD1000AADF0446204800688047B12044DF04468B
:10AD200000BF2546002D06D000BF00221146284650
:10AD3000FEF75EFF00BF00BF11DF044600BF2546DF
:10AD4000002D06D000BF002211462846FEF750FF16
:10AD500000BF00BF1149486913DF044600BF254604
:10AD6000002D06D000BF002211462846FEF740FF06
:10AD700000BF00BF304601F06DF91620012181406F
:10AD8000074A116000BF02F085FE0449486900F0DF
:10AD900009F8F8BD6C3600200421002000100010D6
:10ADA00080E200E010B504462046FDF7C3F910BD6F
:10ADB000704700000021C9438200054B99500428C8
:10ADC00004DB0B46011F024A403253547047000017
:10ADD000E434002001468800014A10587047000002
:10ADE000E4340020F7B585B00B460020C043049042
:10ADF000002A01D0002000E004200390002A01D0A6
:10AE0000042000E00820029003991EE08800124C04
:10AE10002058401C002817D10846059C0093019239
:10AE200046B20D4D20352E5585000B4E009B7351BB
:10AE3000019A002A04D166B2051F074F40377E559C
:10AE400000BF48B2049003E0491C02988142DDD360
:10AE500000BF049808B0F0BDE4340020014601486A
:10AE60004056704704350020F0B587B03E48007862
:10AE7000142148433C49091D4418E7680C21A06887
:10AE800048433A494018008906900C21A06848437D
:10AE900036494018408905900C21A0684843334941
:10AEA00040184068049004F04BFE0146029038467A
:10AEB000FDF776F9002901D1012000E00020039080
:10AEC000059906984843049946186088C019A188D6
:10AED00045180020264908600398002804D004F093
:10AEE0002FFE618888420AD00398002804D0B5421A
:10AEF00002D1A088002802D0A06804280CD104F058
:10AF00001FFE014602903846FDF74AF919490860CC
:10AF1000032005F069FB24E004F012FE0190A188F3
:10AF2000C8190199FDF73CF988081349086004F035
:10AF300007FE014601902846FDF732F9002901D1AC
:10AF4000012000E000200290B54206D002980028BF
:10AF500003D1B1B2A8B206F0FFF9022005F044FB1C
:10AF600000BF07B0F0BD00002C350020F8350020F0
:10AF7000B0200020B4200020AC20002010B50848EC
:10AF80000078142148430649091D441820780428F4
:10AF900002D000F08FFB01E006F052F910BD000076
:10AFA0002C35002010B50F480078142148430D4976
:10AFB000091D441860880C4908602078012804D0D5
:10AFC000032805D0042809D105E006F039F906E088
:10AFD000FFF74AFF03E006F02AFE00E000BF00BFD3
:10AFE00010BD00002C350020C020002010B5034803
:10AFF0004078002801D0FFF7D5FF10BD2C35002088
:10B000000023142141430C4A53541421414389180D
:10B010004B8003231421414389188B6000231421A2
:10B0200041438918CB601421414389180B611421D5
:10B03000414389188B80704730350020FFB581B0BF
:10B04000064617461C4840780A2830D01A4800782F
:10B050001949497844180A2C00D30A3C142060434B
:10B060001549091D0E54142060434018076114202F
:10B0700060434118029805C8CA6088601421614382
:10B080000D4A121D891804984880142161438918BB
:10B090000A988880101F4078401C111F487007488C
:10B0A0000068002801D1FFF77DFF002500E004259E
:10B0B000284605B0F0BD00002C350020A42000205B
:10B0C00010B50020054908704870002403E02046B0
:10B0D000FFF796FF641C0A2CF9D310BD2C35002015
:10B0E00010B5094A127CD200074B403B9850064AE3
:10B0F000137C127C521CD4B2034A1474DA00024B43
:10B10000403BD218117110BDD82C002010B50B484F
:10B11000007C002811DD0948007C401EC1B20748B0
:10B1200001740246127CD2000346403BD2181079CB
:10B13000024A127CD2009958884710BDD82C0020B2
:10B1400070B505460C46022C03DA132000F0B2F964
:10B1500070BD2878552803D0152000F0ABF9F7E72B
:10B160001148007C002804DD022C02D000210E488A
:10B170000174022C04D0072C06D00A2C0CD107E055
:10B18000284600F04FF80BE0284600F091F807E061
:10B19000284600F0BFF803E0132000F08BF900BF51
:10B1A00000BF00BFD4E70000D82C002070B50446D3
:10B1B0000D460648027806490648FFF7E3FC0020E2
:10B1C000054908700149087070BD00002820002062
:10B1D000182C00205C2100202920002010B50446F6
:10B1E0002078052817DAA1782078420082180C48C8
:10B1F0008154E17820784200821809481018417083
:10B20000617820784200821805481018817011205A
:10B2100000F050F902E0172000F04CF910BD0000DA
:10B220006E2D002010B504462048007C002805DD66
:10B230006078102802D000211C4801746078030057
:10B24000FDF7B0FC152B272E162E2E12231D201ACB
:10B250002E2E2E2E2E0C11102E0F2E00FFF756FF25
:10B2600022E000BF00BF1FE0002000F0FFF91BE05C
:10B27000002000F0BDF817E000F00EF914E000F037
:10B28000FDF811E000F0DEF80EE0002000F0AAF971
:10B290000AE0012000F00EF906E000F0D1F903E029
:10B2A000122000F007F900BF00BF10BDD82C00200D
:10B2B00010B504466078022804D0032814D004286E
:10B2C0001FD115E0A1780A06E17809045218217906
:10B2D000090252186179501805F006F805F068FF68
:10B2E000112000F0E7F810E0A01CFFF777FF0CE05A
:10B2F0000522A11C0648FCF7ADFF112000F0DAF88A
:10B3000003E0122000F0D6F800BF00BF10BD00001F
:10B31000F42D002010B504466078082804D00928D0
:10B320000BD00A282AD11FE00822A11C1648FCF7DE
:10B3300091FF112000F0BEF824E0A0781249091F07
:10B340004875E07848702079087060798870A07935
:10B35000002801D0012000E000200B49091FC8701F
:10B36000112000F0A7F80DE00822A11C06480930C2
:10B37000FCF770FF112000F09DF803E0122000F0B0
:10B3800099F800BF00BF10BD5C2D002013B5144814
:10B3900000787A2800D91CBD1249114A1278881801
:10B3A00006226946FCF756FF0D480078801D0C49BF
:10B3B000087000210A4802780078401C084B187079
:10B3C0000848815408480078002807D10120064920
:10B3D0000870064A00210846FEF79CFC00BFDAE729
:10B3E00028200020182C002029200020ADB10100C9
:10B3F0001CB50446052C00DB1CBD684604706000CB
:10B4000021180E48415C68468170600021180B4885
:10B41000081841786846C17060002118074808186C
:10B420008178684641706946062000F073F8601C18
:10B43000C1B20348FFF754FE00BFDDE76E2D0020C8
:10B44000F1B301001CB50C48417D684601700A4803
:10B45000417868464170084801786846817006481E
:10B4600081786846C1700448C178684601716946B0
:10B47000092000F083F81CBD582D00201CB505499B
:10B4800048688968019100906946082000F076F8C4
:10B490001CBD0000582D00201CB508220449684638
:10B4A000FCF7D8FE6946052000F068F81CBD0000D6
:10B4B000652D002038B5044655216846017044705A
:10B4C000104800787B2800DD38BD0F480D49097809
:10B4D0004118684600780870684640784870094806
:10B4E0000078801C0749087008480078002807D1B8
:10B4F000012006490870064A00210846FEF70AFCAA
:10B5000000BFE1E728200020182C0020292000207F
:10B51000ADB101007CB504460D4655216846017069
:10B52000447005222946801CFCF794FE0F480078E1
:10B53000762800DD7CBD0E490C4A12788818072257
:10B540006946FCF787FE09480078C01D0749087066
:10B5500008480078002807D1012006490870064AEB
:10B5600000210846FEF7D6FB00BFE3E728200020B5
:10B57000182C002029200020ADB101003EB5044662
:10B580000D46552168460170447008222946801CEA
:10B59000FCF760FE0F480078762800D93EBD0E49C2
:10B5A0000C4A127888180A226946FCF753FE0948AB
:10B5B00000780A300749087008480078002807D149
:10B5C000012006490870064A00210846FEF7A2FB42
:10B5D00000BFE3E728200020182C002029200020AD
:10B5E000ADB101001CB504460C480078002800DC11
:10B5F0001CBD0A480078401EC10008485038091890
:10B6000003C90191009069460520FFF7B7FF601C50
:10B61000C1B20348FFF764FD00BFE9E7D82D002061
:10B6200025B6010010B5044604480078401EC1B29A
:10B63000024801702046FFF7D5FF10BDD82D00202D
:10B640001CB5FEF74FFD0446234606A205216846B9
:10B65000FDF776FA0448007A694608710020FFF782
:10B6600059FF1CBD25640000D82D00201CB50446E0
:10B6700068460470002C02D0102C09D103E00B485E
:10B68000C06A019005E009488830C069019000E077
:10B690001CBD00BF69460620FFF73CFF601CC1B21D
:10B6A0000348FFF71DFD00BFF2E70000582D002002
:10B6B0006DB6010010B50848007814225043064AC0
:10B6C000121D81180020FEF7C1FA00F007F80020D3
:10B6D00004F08AFF10BD00002C35002010B5094988
:10B6E0000878FFF78DFC07484078401E05494870F0
:10B6F00008460078401CC0B208700A2801D100201A
:10B70000087010BD2C350020FEB51F4800680028C9
:10B7100036D01D480068056804F0BAFC01901B484B
:10B7200004682146019805F045FEC61C18480078BB
:10B73000002801D104F0BEFCAE4201D2284600E050
:10B74000304604192402240A204604F09BFC04F02D
:10B750009FFC00900199009805F02CFEC71C204624
:10B76000019905F027FE874209D904F091FC0746AC
:10B7700004F088FC2F20FCF7CDFC05F077FF01E0FA
:10B7800004F0B6FCFEBD0000E8200020EC20002004
:10B790000021002010B500F03DF800F059F800F04D
:10B7A00029F810BD10B503200E4908700520487017
:10B7B0000A2088700020C870032048750AA2092159
:10B7C0000848001DFDF7BCF9802006494873812117
:10B7D000044881738221C1738721017488214174D7
:10B7E00010BD0000582D002048656C6C6F576F72BB
:10B7F0000000000001210248C170802101737047E0
:10B80000E02D002010B5029C042900D100BF00BF2C
:10B8100010BD00007CB58021684681800121C18077
:10B82000094800900949684604F052FA044600BFEE
:10B830002546002D06D000BF002211462846FEF7FF
:10B84000D7F900BF00BF7CBD05B801003020002043
:10B850003EB56A4600211E4804F080F8044600BF49
:10B860002546002D06D000BF002211462846FEF7CF
:10B87000BFF900BF00BF00230422694602A804F0FC
:10B88000A9F900BF2546002D06D000BF00221146B1
:10B890002846FEF7ADF900BF00BF0E490298884266
:10B8A00002D0FFF77FFF11E00423882269460A488F
:10B8B00004F090F900BF2546002D06D000BF0022FD
:10B8C00011462846FEF794F900BF00BF3EBD0000B8
:10B8D0003020002001000100582D0020014608887A
:10B8E000062808DB08881922D201904205DD088865
:10B8F000104A904201D0072070474888062808DB8C
:10B9000048881922D201904205DD4888094A9042B0
:10B9100001D00720F0E70888064A904208D04888FE
:10B92000904205D008884A88904201DD0720E3E76D
:10B930000020E1E7FFFF0000FFB581B006460D469D
:10B9400014462088801D0499884202D90C2005B035
:10B95000F0BD3046FFF7C2FF0746002F01D0384642
:10B96000F5E70520218868542088401C208012209B
:10B97000218868542088401C2080228851193088F2
:10B9800006F04CF9218840182080228851197088CF
:10B9900006F044F92188401820800020D7E70446AB
:10B9A00000BF002211462046FEF722F930B587B0CD
:10B9B0001C216846FCF767FC002000900520C003AE
:10B9C00001900F20000402900321684601730021BA
:10B9D000C18101740A4805900A4806906846FEF73E
:10B9E000EDFE044600BF2546002D05D000BF002215
:10B9F00011462846FEF7FCF800BF07B030BD000036
:10BA0000E5EF01009FB9010038B51F4802F092F838
:10BA1000002829D11D48007800280AD01C48406918
:10BA2000002820D0002000901948416968468847C6
:10BA300019E018480078002802D11548456801E04F
:10BA4000134885680022294613480068FEF7CEFA9D
:10BA50000446002C07D00E488069002803D00C480B
:10BA60008169204688470AE009484069002806D0D5
:10BA700001200090064841696846884700BF0020C1
:10BA80000249087038BD0000742000207C2000208E
:10BA90005433002070200020842C020070B503462F
:10BAA0000C460820002115E00C254D430B4EAD1926
:10BAB000AD7A2540002D0CD0094DAB4205D00C25A8
:10BAC0004D43AD192D899D4202D11160002003E044
:10BAD0000520491C0029E7D000BF70BDB434002008
:10BAE000FFFF000010B5044601210C2060430A4A04
:10BAF00080188172891E0C20604380180181FF210B
:10BB00000C2060438018C1720C2161438818072102
:10BB1000FCF7B9FB10BD0000B434002010B5144888
:10BB20004068C105C90D002920D00A46103A1046C8
:10BB300000280DDA0E4B1C330407240F083CA40820
:10BB4000A4001B598407E40EE3401B069B0F0BE087
:10BB5000084B032424021B198408A4001B598407E2
:10BB6000E40EE3401B069B0FD8B210BD0420FCE797
:10BB700000ED00E000E100E010B514484068C105A8
:10BB8000C90D002920D00A46103A104600280DDAC7
:10BB90000E4B1C330407240F083CA408A4001B59B7
:10BBA0008407E40EE3401B069B0F0BE0084B0324C5
:10BBB00024021B198408A4001B598407E40EE340E7
:10BBC0001B069B0FD8B210BD0420FCE700ED00E07F
:10BBD00000E100E010B514484068C105C90D002916
:10BBE00020D00A46103A104600280DDA0E4B1C33BE
:10BBF0000407240F083CA408A4001B598407E40E82
:10BC0000E3401B069B0F0BE0084B032424021B1987
:10BC10008408A4001B598407E40EE3401B069B0F15
:10BC2000D8B210BD0420FCE700ED00E000E100E028
:10BC300010B51C4800680821084000282FD11A4878
:10BC40000068401C1849086018480068002803D0A4
:10BC5000042005F05DFB24E001F0D0FF002803D0B4
:10BC6000022005F055FB1CE011480068002813D0A5
:10BC70000C480078C007C00F002809D109480068A7
:10BC80000121084307490860002005F041FB08E056
:10BC9000032005F03DFB04E005F00EFB01E005F09C
:10BCA0001BFB10BDC4200020B4200020AC200020CD
:10BCB000B020002010B50C4800680821084000287A
:10BCC0000FD10948006802210840002805D0064825
:10BCD00000680121084304490860022005F018FBB0
:10BCE00001E005F0F9FA10BDC4200020FEB50446BD
:10BCF0000E46A1786A46284803F030FE0546002D1E
:10BD000049D160780C21484324494018807A402169
:10BD10000840402801D0022E01D1214F04E0012E1D
:10BD200001D1204F00E0204FA0781C2250431F4A31
:10BD3000811800231C226846B8470546002D1AD1F9
:10BD4000022E18D060780C21484314494018807A9C
:10BD50004021884361780C225143104A8918887227
:10BD600060781C225043124A81181C231A466846E8
:10BD7000B847054600BF022E0DD020780C2148435D
:10BD80000C494018807A80000B490A5821466846C1
:10BD90009047054600BFFEBD80200020B43400203F
:10BDA0001DFF0100F1FD0100D5110200B03300209C
:10BDB00074340020C0340020882C0200F8B50546F9
:10BDC0000E461B4F00242EE01C20604319494018EA
:10BDD000807EFF2826D13078022814D01C206043B2
:10BDE0004018807E022188431C216143114A891832
:10BDF00088761C2161438918084610300722314695
:10BE0000FCF728FA0BE01C2060430A494018807EAA
:10BE1000410849001C206043064A801881762C7036
:10BE2000002702E0641C072CCED300BF3846F8BDC3
:10BE300043800000B0330020F8B505460E46174693
:10BE40000520009000241BE0002D06D11C2060433B
:10BE50000E494018008BB8420DD0002D0FD01C2188
:10BE600061430A4A89180846103007222946FCF720
:10BE70001CFA002803D134600020009002E0641C0A
:10BE8000072CE1D300BF0098F8BD0000B0330020BC
:10BE90007CB50546A9B26A46084803F05FFD044632
:10BEA000002C09D17421684603F0AAFD0446002C39
:10BEB00002D1284603F0CAFC20467CBD8020002029
:10BEC000F7B5074614463846019900F0CDF9002C25
:10BED00018D0012C17D0812C1AD1132113480088B7
:10BEE00076DF054600BF2E46002E05D000BF00229B
:10BEF00011463046FDF77CFE00BFCA2001F0EEFF80
:10BF00000020FEBD00BFCA2001F0E8FF0020F8E7D6
:10BF100000BF2646002E05D000BF00221146304645
:10BF2000FDF766FE00BF0020EBE7000002200020C6
:10BF30007FB50546039503F009FE044600BF26467B
:10BF4000002E05D000BF002211463046FDF750FEFE
:10BF500000BF03A800F0F2FF044600BF2646002EF3
:10BF600005D000BF002211463046FDF741FE00BF5C
:10BF7000052101A80130FCF786F96846407941089F
:10BF80004900491C68464171407902218843811C5F
:10BF90006846417140791C218843014668464171D9
:10BFA000407920218843014668464171072181710B
:10BFB0001021C1710A48009001216846017169464B
:10BFC000084801F0C3F9044600BF2646002E05D0FC
:10BFD00000BF002211463046FDF70AFE00BF7FBDBC
:10BFE000C1BE01000020002031B50949684600F0BB
:10BFF000A5FB044600BF2546002D06D000BF002249
:10C0000011462846FDF7F4FD00BF00BF38BD000013
:10C0100008210020F8B504460D462868002803D101
:10C020002088FEF76DFE12E0032201212046FEF774
:10C03000E5FC064600BF3746002F06D000BF0022B1
:10C0400011463846FDF7D4FD00BF00BF00BF00BF5A
:10C05000F8BD000070B58AB00646002003903F4945
:10C06000304600F027FF0446002C75D104A93B4858
:10C0700000F0ACFE0446002C4ED100BF2546002D3A
:10C0800006D000BF002211462846FDF7B1FD00BFD3
:10C0900000BF08980146103107223148FCF7DAF852
:10C0A00010222F48C01D0899FCF7D4F811222C4803
:10C0B00018300499FCF7CEF80498014612310A2290
:10C0C00027482A30FCF7C6F8254800DF044600BFA1
:10C0D0002546002D06D000BF002211462846FDF758
:10C0E00087FD00BF00BF012003900420019003A83A
:10C0F0000290002000906946184800F091FA04462A
:10C1000000BF2546002D06D000BF0022114628465C
:10C11000FDF76EFD00BF1FE01149104800F092FFCF
:10C12000044600BF2546002D06D000BF0022114660
:10C130002846FDF75DFD00BF00BF094800DF04464B
:10C1400000BF2546002D06D000BF0022114628461C
:10C15000FDF74EFD00BF00BF0AB070BD08210020F2
:10C160003836002070470000014908607047000021
:10C170000421002010B5044621460248FEF710FCB9
:10C1800010BD00009027002010B58EB004461C2181
:10C1900007A8FCF778F86846007F08218843411813
:10C1A00068460177007F102188434118684601776F
:10C1B000002008900A900B900C900D90A179684691
:10C1C0008171284981800020009000BF6846007876
:10C1D00001090901684601700078F0218843694629
:10C1E000087000BF00BF6846407801090901491C7A
:10C1F000684641704078F0218843103069464870A5
:10C2000000BF6846807806218843811C684681709B
:10C210008078082188430146684681708078102123
:10C220008843411868468170807841084900491C5C
:10C2300068468170142102A8FCF725F801A8029035
:10C2400068460390002101824182172181820020EB
:10C250000690A0882346103302AA07A9A2DF0EB0D9
:10C2600010BD00003115000070B505460C46207861
:10C27000152802D12846FDF765FC70BD10B58EB0BB
:10C2800004461C2107A8FBF7FEFF6846007F042137
:10C290008843011D68460177002008900A900B90A2
:10C2A0000C900D90A1796846817128498180002009
:10C2B000009000BF684600780109090168460170D6
:10C2C0000078F02188436946087000BF00BF6846C7
:10C2D000407801090901491C684641704078F02105
:10C2E000884310306946487000BF68468078062150
:10C2F0008843811C68468170807808218843014604
:10C3000068468170807810218843014668468170B4
:10C31000807841084900491C68468170142102A8B0
:10C32000FBF7B1FF01A8029068460390002101824B
:10C3300041821421818200200690A0882346083380
:10C3400002AA07A9A2DF0EB010BD0000321500003E
:10C3500030B58FB004460D461C2108A8FBF793FFAB
:10C3600008A8007802218843811C08A801700020D9
:10C3700009900B900C900D900E90A17968468172F7
:10C38000284901810020019000BF68460079010919
:10C390000901491C684601710079F0218843103079
:10C3A0006946087100BF00BF68464079010909016C
:10C3B000684641714079F02188436946487100BF61
:10C3C0006846807906218843811C6846817180799E
:10C3D000082188430146684681718079102188438D
:10C3E000014668468171807941084900491C6846C8
:10C3F0008171142103A8FBF746FF02A8039001A84E
:10C4000004900221684681820021C18202210183B9
:10C410000795A0882346203303AA08A9A2DF0FB0FE
:10C4200030BD000034150000FEB504460020009029
:10C43000019002900F480190002002900D48019059
:10C440000120694608800C48FEF752FAC5B200BFC9
:10C450002E46002E06D000BF002211463046FDF7C2
:10C46000C7FB00BF00BF0548FFF77EFE2078FFF73F
:10C47000BBFDFEBD15C0010090270020FDFF01009F
:10C480003EB5044600BF26480078002801D1254863
:10C490003EBD00BF002C02D12248801DF8E700BF3E
:10C4A0002078012806DA20780C2148431E490858D4
:10C4B000002801D11B48EBE700BF00BFA078072888
:10C4C00007DAA0781C21484318494018807EFF28CD
:10C4D00002D114480830DBE700BFA1786A4614484F
:10C4E00003F03CFA0546002D17D16023042269466B
:10C4F00002A803F06FFB05460298401C00280CD0F0
:10C50000602304220B49684603F008FD0546002D10
:10C5100003D1A1788900084A50502846B8E70000A6
:10C520008C20002008800000C0340020B0330020A0
:10C5300080200020B82C020094330020FEB5044671
:10C540000D4600BF30480078002801D12F48FEBDBD
:10C5500000BF002C02D12D48801DF8E7002D02D12C
:10C560002A48801DF3E700BF2078012806DA2078EA
:10C570000C21484326490858002801D12348E6E702
:10C5800000BF00BFA078072807DAA0781C21484325
:10C5900020494018807EFF2802D11C480830D6E789
:10C5A00000BFA868002805D1A07880001A49085863
:10C5B000A86004E0A1788900174AA8685050A178C3
:10C5C0006A46164803F0CAF90646002E1AD16023BF
:10C5D0000422694602A803F0FDFA0646002E0FD198
:10C5E0000298401C00280BD0642310226946A868DA
:10C5F00003F0F0FA0646002E04D10298686001E0CC
:10C60000024E38363046A2E78C2000200880000019
:10C61000C0340020B033002094330020802000205C
:10C62000FEB504460D4600BF3B480078002801D106
:10C630003A48FEBD00BF002C02D13848801DF8E703
:10C64000002D02D13548801DF3E7A868002802D1EB
:10C650003248801DEDE700BF2078012806DA2078F7
:10C660000C2148432E490858002801D12B48E0E707
:10C6700000BF00BFA078072807DAA0781C21484334
:10C6800028494018807EFF2802D124480830D0E78E
:10C6900000BF00BF60780C21484323494018807ACE
:10C6A00008210840082801D01C48C2E700BF68687C
:10C6B000042801D20720BCE71C4FA1786A461C4819
:10C6C00003F04CF90646002E23D16023042269466C
:10C6D00002A803F07FFA0646002E04D10298401CFF
:10C6E000002800D0134F60230422291D6846B84754
:10C6F0000646002E0DD1642310226846A96803F077
:10C700000DFC0646002E04D1A17889000A4AA868CB
:10C71000505030468DE700008C200020088000003B
:10C72000C0340020B0330020B4340020F1FD0100FB
:10C73000802000201DFF010094330020024600BF2E
:10C7400011480078002801D11048704700BF002927
:10C7500002D10E48801DF8E7002A02D10B48801D47
:10C76000F3E700BF1078012806DA10780C2358434D
:10C77000074B1858002801D10448E6E700BF10789D
:10C7800008700020E1E700008C20002008800000F5
:10C79000C0340020F0B58FB00446FF200D90002675
:10C7A0000020079000BFFE480078002801D10FB09C
:10C7B000F0BD00BF00BFFB480068002800D1F6E7CD
:10C7C00000BF0CA800F0ACFB054600BF2F46002FB1
:10C7D00006D000BF002211463846FDF709FA00BF17
:10C7E00000BF002008900025201D0A902A216846DD
:10C7F0008185FF2108A881740021017400200E901A
:10C800002088102813D0A0880EAA0221FFF746F92D
:10C810000546002D0BD10C210E984843E2494018E3
:10C82000C17A08A881740E98C1B208A84174208802
:10C8300017287BD008DC10280DD011287CD01328B5
:10C8400076D0142875D1B5E0182873D01C2872D082
:10C850005228F7D180E20EAF3A460121D348FFF7C4
:10C860001DF900900098002807D102210C22386899
:10C870005043CD4A8018817201E004200090009856
:10C880000546002D51D10126112108A801710E98ED
:10C89000C1B208A84174A1880C220E985043C24A24
:10C8A0008018018102210C220E985043BE4A801844
:10C8B00081720C220E995143BB4A88180722A11D90
:10C8C000FBF7C8FC207D304000280AD0207D4008BE
:10C8D000B749085CFF280AD0207D4008085C0D900D
:10C8E00005E0B24A0DA9A01DFFF7A6FA0546002DE6
:10C8F0001BD10D98C1B20C220E985043AA4A801841
:10C90000C1720C210E98484311464018807A0821C4
:10C9100008430C220E995143A34A8918887208A92A
:10C920000D9888740CA8FEF7C3F924E2FAE003E03E
:10C9300085E01FE2ADE118E20C210E9848439A49C8
:10C940004018807A022188430C220E995143964A5E
:10C95000891888720C210E98484311464018807A35
:10C960000821084008280ED10C210E984843114692
:10C970004018807A8021084080280FD100210CA81F
:10C98000FFF7B4F90AE008A8807CFF2806D008A9C0
:10C99000887C02F05BFFFF2008A9887410210C221C
:10C9A0000E985043804A801881720126122008A9EF
:10C9B0000871E0E10C210E9848437B494018C07A89
:10C9C000FF2823D1E2890DA90020FFF735FA05469B
:10C9D000002D1BD10D98C1B20C220E985043724A03
:10C9E0008018C1720C210E98484311464018807A75
:10C9F000082108430C220E9951436B4A891888720A
:10CA000008A90D9888740CA8FEF752F90C210E980D
:10CA1000484365494018C07AFF2805D01C210E986C
:10CA200048436449401807901C230E995943624BB0
:10CA3000CA18A0880023079982DF05469BE11320CE
:10CA400008A908710C210E98484357494018807A6C
:10CA5000042108430C220E995143534A89188872C5
:10CA600001260C210E98484311464018C07AFF2831
:10CA700019D10C220E9850430A4681180DA8FFF7D1
:10CA80009DF90546002D0BD108A90D9888740D98C5
:10CA9000C1B20C220E985043434A8018C1721DE067
:10CAA000089501261AE0162008A9087124220E997B
:10CAB0005143424A8918084608301A21FBF7E3FB24
:10CAC0000C210E98484338494018807A4021084389
:10CAD0000C220E995143344A891888720020049020
:10CAE0000C210E98484330494018C07A1C21484315
:10CAF000314941180591002106911C210E984843A7
:10CB00002C4940180190002002900390A08801ABAE
:10CB1000244A121D00217FDF0546002D01D0089513
:10CB2000002628E11F48407A400840001D4948720D
:10CB30000C210E9848431C494018807A04218843F0
:10CB40000C220E995143184A89188872142008A99A
:10CB500008710126A07900280AD00C220E995143B1
:10CB6000114A8918C87AFFF793F9A07908908FE0E5
:10CB7000E0794007C00F00287ED008A8807CFF28FD
:10CB80007AD00C210E98484307494018807A082132
:10CB900008430C220E995143034A891888720FE00A
:10CBA0008C200020C0340020B4340020FFFF00009F
:10CBB0008D20002074340020B033002090340020F9
:10CBC000E07A8007C00F00280FD008A8807C1C21C5
:10CBD000484377494018807E4108490008A8807C76
:10CBE0001C225043724A801881760C210E984843CB
:10CBF00070494018C07AFF284AD00C210E9848434B
:10CC00006C49085C022820D00C230E9A5A430B462C
:10CC1000D11808AA927C1C235A43654BD21810469F
:10CC200010300722FBF716FB08A8807C1C21484324
:10CC30005F494018807E0221884308A9897C1C2214
:10CC400051435B4A891888761EE01C210E984843A0
:10CC500059494018418A08A8807C1C225043544AF4
:10CC60008018018308A8807C1C2148431146401885
:10CC7000807E4108490000E00AE008A8807C1C2270
:10CC800050434B4A8018817601210CA8FFF72EF8FB
:10CC900071E0A079000901283DD1A0790007000FBB
:10CCA000012838D10C210E98484342494018807A17
:10CCB0000821084008282ED124220E9951433F4ACA
:10CCC000891808181A21FBF7DEFA162008A908713E
:10CCD0000C210E98484337494018807A2021084398
:10CCE0000C220E995143334A891888720C210E98F0
:10CCF000484311464018807A402108430C220E997F
:10CD000051432C4A891888722D48407A02210843E1
:10CD10002B4948721CE00C210E98484325494018C5
:10CD2000807A802108430C220E995143214A8918A8
:10CD30008872152008A908712148807A8000214A4C
:10CD400011580CA888470546002D01D01E480890B0
:10CD50000020089001260EE01948807A8000194AC8
:10CD600011580CA88847089005E0132008A90871FD
:10CD7000012600E000BF00BF002E16D009A90CA8B4
:10CD8000089AFCF755FF08A8007912280DD100BFBA
:10CD90000C210E98484307494018807A012802D098
:10CDA0000E98FEF79FFE00BF00BF00BFFFE400002B
:10CDB000B0330020B43400207434002090340020BC
:10CDC000C0340020A82C02004180000070B58AB059
:10CDD00005460C4600BF31480078002802D1304893
:10CDE0000AB070BD00BF002D02D12D48801DF7E7AD
:10CDF000002C02D12A48801DF2E700BF28780128C4
:10CE000006DA28780C21484326490858002801D121
:10CE10002348E5E700BF00BFA878072807DAA8780D
:10CE20001C21484320494018807EFF2802D11C481D
:10CE30000830D5E700BF00BF0020E060A8781C21C3
:10CE40004843194941182161002161611748606018
:10CE50000020A06003A82060A97801AA144802F06D
:10CE60007DFD0646002E17D11C231A4601A903A8F2
:10CE700002F0B0FE0646002E0ED1E060A8781C211C
:10CE800048430949411821610021616107486060F8
:10CE90000020A06003A820603046A1E78C2000207D
:10CEA00008800000C0340020B0330020CC340020C3
:10CEB0008020002030B50446002901D1154830BD3E
:10CEC00000BF0878012806DA08780C256843124D5F
:10CED0002858002802D10F48801FF0E700BFFF202C
:10CEE0008870052300220FE00C2050430B4D4019A1
:10CEF0000089A04207D14A700C2050434019C07AE3
:10CF00008870002302E0521C002AEDD000BF1846B2
:10CF1000D5E700000E800000C0340020B4340020AB
:10CF20000146002901D104487047FF20087048706D
:10CF30008870C8700020F7E70E8000007FB50646B5
:10CF4000002E02D1374804B070BD00240FE000BFAE
:10CF500000210C206043344A11500C20604380189B
:10CF600041720C2060438018817200BF641C002C49
:10CF7000EDD0002403E02046FEF7B4FD641C002C35
:10CF8000F9D024212948FBF77EF9002406E0204649
:10CF900002F05CFCFF2026490855641C072CF6D3E0
:10CFA0007421684681810721C1812248029022496B
:10CFB00002A802F08DFE0546002D30D101201F4948
:10CFC00008703078002821D100241CE0A1B26A4604
:10CFD000194802F0C3FC0546002D0FD11C21614306
:10CFE000174A881800231C22694602F0F3FD054603
:10CFF000002D07D000201149087006E000200F49DD
:10D00000087002E0641C072CE0D308E06A469089AF
:10D01000D289504381B2084802F0F2FC0546284606
:10D0200091E700000E800000C03400209034002002
:10D030008D20002009D10100802000208C200020BC
:10D04000B033002070B504460E4600BF2948007872
:10D05000002801D1284870BD00BF002C02D126480D
:10D06000801DF8E7002E02D12348801DF3E700BFA2
:10D070002078012806DA20780C2148431F490858F7
:10D08000002801D11C48E6E700BF1B4DED1EA0782B
:10D09000FF2817D16078FF282AD060780C214843F8
:10D0A00017494018807A02210840022820D1607870
:10D0B0000C225043124A811807223046FBF7CAF867
:10D0C000002515E0A0781C2148430E494018807EB9
:10D0D0000221084000280BD1A0781C225043094AA5
:10D0E00080180146103107223046FBF7B3F80025BF
:10D0F0002846B0E78C20002008800000C0340020C3
:10D10000B4340020B0330020FFB591B01D4600BFFD
:10D1100084480068002801D115B0F0BD00BF1A98FE
:10D12000742800D9F8E7012007900DA8FFF7F8FE52
:10D13000064600BF3746002F06D000BF002211462A
:10D140003846FCF755FD00BF00BF002108A8017557
:10D1500001760C951A980B90002712E0B9B208AA34
:10D16000714802F0FBFB0646002E09D1082208A9EF
:10D170001198FBF79AF8002802D108A98F7502E0F0
:10D180007F1C072FEAD300BF08A8807DFF2877D037
:10D19000129803280AD11A98742803D1202008A9CC
:10D1A000087698E0402008A9087694E05F49681A5C
:10D1B0001C21FAF7F5FF0446072C1DD20AA80F9090
:10D1C0001398002810D108A9887D01218140584A70
:10D1D00012681140002901D0012100E0002100293E
:10D1E00002D10020079076E008A9887D04F024FD94
:10D1F000202008A908766EE04E49681A1C21FAF72B
:10D20000CFFF0446002C1AD10AA80F90202108A8AD
:10D210000176447500200490474905911C20604325
:10D2200044494018019008A8807D1C2148433F498B
:10D230004018029001A80C9018200B904BE03F4939
:10D24000681A2421FAF7ACFF0446002C19D13021CA
:10D2500008A8017644750121C1750C206043384946
:10D260004018807A02210840022834D008A9497D5C
:10D2700024225143314A88182421FBF704F82AE07C
:10D280004DE000200790402008A908762D488542EF
:10D2900004D103201290012007901CE008A8807D93
:10D2A000800029490858A84215D1012007900AA8F2
:10D2B0000F9000200CE008A98A7D0C214143204BEF
:10D2C000C918C97A8A4202D108AA507502E0401CE6
:10D2D0000028F0D000BF0798012820D11298032819
:10D2E00006D108A9087E0321084308A908760FE0A3
:10D2F0001298022806D108A9087E0121084308A92E
:10D30000087605E008A9087E0221084308A90876E6
:10D310000AA80F900EA90DA8139AFCF789FC00BF6C
:10D32000FAE60000C034002080200020B033002046
:10D330008820002074340020CC3400209034002059
:10D34000B4340020B82C02009433002070B5054698
:10D350000C4600BF29480078002801D1284870BD3C
:10D3600000BF002D02D12648801DF8E7002C02D115
:10D370002348801DF3E72068002802D12048801D43
:10D38000EDE720480068002834D11E492068086075
:10D390000522611D1B48001DFAF75CFF2079194921
:10D3A00088720846007A4008400008720846007AF1
:10D3B00002218843801C134908720846007A042120
:10D3C0008843104908720846C07940084000401C54
:10D3D000C8710846C07902218843801C0949C87178
:10D3E0000846C079042188430649C8710020287086
:10D3F000002601E0024E361F3046B0E78C200020A8
:10D4000008800000C0340020014614480078144A07
:10D41000127890421DD011480078401C0F4A1070BD
:10D4200010460078022801D1002010700B480078C7
:10D4300080000C4A105808600B4A0868126880186F
:10D44000094A1060104600680002000A10600120BE
:10D4500070470020086000BFFAE70000F8200020B5
:10D46000F9200020F0200020EC20002010B50D480D
:10D47000006808210840002810D10B480068401CB3
:10D480000949086000F0BAFB002802D1FDF776FDDB
:10D4900006E00648006803F0A7F801E000F014FF7A
:10D4A00010BD0000C4200020B4200020A4200020D3
:10D4B000F0B50346002420E0134E306806689E4213
:10D4C00003D90668F61A06601BE006689B1B06680F
:10D4D0003419002606600C4E35680B4F066A3E6014
:10D4E000C668002E08D00E193602360A4660C66895
:10D4F000866016680662156000BF03480068002851
:10D50000DAD100BFF0BD0000E820002010B50446CD
:10D51000607AFF2802D0607A01F09AFC0020207225
:10D520002168884710BD30B504461088C01C984259
:10D5300001D90C2030BD0220158848551088401CA8
:10D5400010800120158848551088401C10801588CF
:10D550004C551088401C10800020EBE710B50446A5
:10D56000002C02D0112C08D100E00AE00648006827
:10D57000082108430449086003E02046FCF77EFBCD
:10D5800000BF00BF10BD0000C420002010B50C4833
:10D590000068401C0A49086003280DD0094800684B
:10D5A000022804D00748006803F01EF807E0064888
:10D5B000006803F0ADFE02E00D20FCF75FFB10BD3C
:10D5C000B8200020A4200020A820002010B50A4880
:10D5D0000068012804D0022808D0032809D102E0FD
:10D5E00003F034FE06E0FFF741FF03E003F084FEA2
:10D5F00000E000BF00BF10BDA420002070B50446AD
:10D60000204628DF0546FFF7A9FF70BDF8B50446A0
:10D610000D46164632462946204629DF0746FFF7C3
:10D620009DFFF8BD3EB500BF6846007801090901BD
:10D63000491C009168460078F02188431030009022
:10D6400000BF2048FAF72AFE85B22A461D496846DF
:10D650007CDF044600BF2546002D05D000BF002218
:10D6600011462846FCF7C4FA00BF00200190029042
:10D67000502168468180FF219131C18001210181C3
:10D68000FF219131418101A87ADF044600BF254680
:10D69000002D05D000BF002211462846FCF7A8FA4D
:10D6A00000BF0720C04377DF044600BF2546002D9A
:10D6B00005D000BF002211462846FCF799FA00BFAA
:10D6C0003EBD00005C2D0020014600207047024650
:10D6D000002070470246002070470000F8B505465C
:10D6E0000027002000900026687824214843334911
:10D6F00040184068002827D068780C2148433049FA
:10D700004018807A8021084080281DD168780C213B
:10D7100048432B494018807A40210840402813D0C4
:10D720006878242148432549401807460837687817
:10D730002421484321494018808880B200906878AD
:10D74000242148431D490E5869780C2251431C4A34
:10D750008918088933463946009AA9DF04460B2CFC
:10D760000BD1012669780C225143154A8918088982
:10D7700033463946009AA9DF0446002C00D0114CEC
:10D78000012E18D169780C2251430D4A8918088955
:10D790000D4A0C21A7DF0446002C0CD00B48844214
:10D7A00008D0082C06D0801C844203D0112C01D054
:10D7B000002400E0034C2046F8BD00009034002017
:10D7C000B434002041800000FFFF00000230000060
:10D7D00070B505460C466178242251430D4A8818DD
:10D7E00038232422294602F0F5F90646002E0FD1EF
:10D7F000607824214843074940184068401C0028AD
:10D8000006D10021607824225043024A80184160EA
:10D81000304670BD90340020F3B589B00C46032724
:10D820001A20089061780C2251432E4A89180889E1
:10D830003B4608AA01A9AADF0646002E4FD161780F
:10D8400024225143284A89180846083069460A8C20
:10D8500001A9FAF72AFD002812D160780C2148436B
:10D8600020494018807A02210840022837D0617888
:10D87000242251431C4A88182421FAF704FD2EE083
:10D88000607824214843184940184068002801D096
:10D89000164D00E0164D60782421484312490F5080
:10D8A0006946098C6078242250430F4A80184160F1
:10D8B0006178242251430C4A891808460830694689
:10D8C0000A8C01A9FAF7C6FC607824225043064A64
:10D8D0008118382324220998A847064600BF002053
:10D8E0000BB0F0BDB4340020903400201DFF0100C7
:10D8F000F1FD010070B505462846FFF7EFFE04462E
:10D90000002C02D100BF00BF0446204670BD70B598
:10D9100005460E4631462846FFF75AFF0446002CBE
:10D9200002D100BF00BF0446204670BD70B5054659
:10D930000E4631462846FFF76FFF0446002C02D101
:10D9400000BF00BF0446204670BD000010B5184857
:10D95000006808210840002826D100F0A5F9002819
:10D960000CD00020134908601148006801210843C9
:10D970000F490860002003F0CBFC17E000F03EF9EF
:10D98000002806D000200B490860022003F0C0FCEC
:10D990000CE009480068002803D0032003F0B8FC1D
:10D9A00004E003F089FC01E003F096FC10BD0000E8
:10D9B000C4200020AC200020B02000207CB505460B
:10D9C0000C4600950194034A08216846FCF7A2F929
:10D9D0007CBD00000DDD0100F8B529480078002865
:10D9E00000D1F8BD27480068002801D1012000E0DF
:10D9F0000020054624480068002801D1012000E0ED
:10DA00000020064600BF002D14D1684651DF0446B1
:10DA1000052C01D101250CE0002C06D000BF00220E
:10DA200011462046FCF7E4F803E01649009809681F
:10DA3000884700BF002E1AD114480088009069461C
:10DA40001348006861DF0446052C01D101260DE072
:10DA5000002C06D000BF002211462046FCF7C8F873
:10DA600004E00B48006808490968884700BF002D9A
:10DA700002D0002E00D000E0C5E700BF00BFB0E735
:10DA800020210020302100202C21002028210020EE
:10DA9000242100200B4A116800200FE0012282405F
:10DAA0000A40002A09D000BFC306DB0E01229A40BB
:10DAB000044B80331A6000BF00BF401C2028EDD308
:10DAC0007047000000E100E070B505460C46FF21FC
:10DAD0000931284601F0E4F92146284603F023FEE7
